{
  "contractName": "Item",
  "abi": [
    {
      "inputs": [
        {
          "internalType": "contract ItemManager",
          "name": "_parentcontract",
          "type": "address"
        },
        {
          "internalType": "uint256",
          "name": "_priceInWei",
          "type": "uint256"
        },
        {
          "internalType": "uint256",
          "name": "_index",
          "type": "uint256"
        }
      ],
      "stateMutability": "nonpayable",
      "type": "constructor"
    },
    {
      "stateMutability": "nonpayable",
      "type": "fallback"
    },
    {
      "inputs": [],
      "name": "index",
      "outputs": [
        {
          "internalType": "uint256",
          "name": "",
          "type": "uint256"
        }
      ],
      "stateMutability": "view",
      "type": "function"
    },
    {
      "inputs": [],
      "name": "paidWei",
      "outputs": [
        {
          "internalType": "uint256",
          "name": "",
          "type": "uint256"
        }
      ],
      "stateMutability": "view",
      "type": "function"
    },
    {
      "inputs": [],
      "name": "priceInWei",
      "outputs": [
        {
          "internalType": "uint256",
          "name": "",
          "type": "uint256"
        }
      ],
      "stateMutability": "view",
      "type": "function"
    },
    {
      "stateMutability": "payable",
      "type": "receive"
    }
  ],
  "bytecode": "0x608060405234801561001057600080fd5b506040516104c33803806104c38339818101604052606081101561003357600080fd5b81019080805190602001909291908051906020019092919080519060200190929190505050816000819055508060028190555082600360006101000a81548173ffffffffffffffffffffffffffffffffffffffff021916908373ffffffffffffffffffffffffffffffffffffffff16021790555050505061040a806100b96000396000f3fe6080604052600436106100385760003560e01c80632986c0e5146102f15780633c8da5881461031c57806383d12eef14610347576102e2565b366102e2576000600154146100b5576040517f08c379a00000000000000000000000000000000000000000000000000000000081526004018080602001828103825260198152602001807f546865206974656d20697320616c726561647920706169642e0000000000000081525060200191505060405180910390fd5b346000541461010f576040517f08c379a00000000000000000000000000000000000000000000000000000000081526004018080602001828103825260228152602001806103856022913960400191505060405180910390fd5b346001600082825401925050819055506000600360009054906101000a900473ffffffffffffffffffffffffffffffffffffffff1673ffffffffffffffffffffffffffffffffffffffff1634600254604051602401808281526020019150506040516020818303038152906040527f800fb83f000000000000000000000000000000000000000000000000000000007bffffffffffffffffffffffffffffffffffffffffffffffffffffffff19166020820180517bffffffffffffffffffffffffffffffffffffffffffffffffffffffff83818316178352505050506040518082805190602001908083835b6020831061021e57805182526020820191506020810190506020830392506101fb565b6001836020036101000a03801982511681845116808217855250505050505090500191505060006040518083038185875af1925050503d8060008114610280576040519150601f19603f3d011682016040523d82523d6000602084013e610285565b606091505b50509050806102df576040517f08c379a000000000000000000000000000000000000000000000000000000000815260040180806020018281038252602e8152602001806103a7602e913960400191505060405180910390fd5b50005b3480156102ee57600080fd5b50005b3480156102fd57600080fd5b50610306610372565b6040518082815260200191505060405180910390f35b34801561032857600080fd5b50610331610378565b6040518082815260200191505060405180910390f35b34801561035357600080fd5b5061035c61037e565b6040518082815260200191505060405180910390f35b60025481565b60005481565b6001548156fe576520646f6e277420737570706f7274207061727469616c207061796d656e74732e546865207472616e73616374696f6e20776173206e6f74207375636365737366756c2c2063616e63656c696e672ea264697066735822122089680083b103bbd343a94f24dc339cbcce789f81b58ef0cc646120dd87f720fc64736f6c63430007000033",
  "immutableReferences": {},
  "source": "// SPDX-License-Identifier: GPL-3.0\r\n\r\npragma solidity >=0.7.0 <0.9.0;\r\n\r\nimport \"./ItemManager.sol\";\r\n\r\ncontract Item {\r\n    uint256 public priceInWei;\r\n    uint256 public paidWei;\r\n    uint256 public index;\r\n\r\n    ItemManager parentContract;\r\n\r\n    constructor(\r\n        ItemManager _parentcontract,\r\n        uint256 _priceInWei,\r\n        uint256 _index\r\n    ) {\r\n        priceInWei = _priceInWei;\r\n        index = _index;\r\n        parentContract = _parentcontract;\r\n    }\r\n\r\n    receive() external payable {\r\n        require(paidWei == 0, \"The item is already paid.\");\r\n        require(priceInWei == msg.value, \"We don't support partial payments.\");\r\n        paidWei += msg.value;\r\n        (bool success, ) = address(parentContract).call{value: msg.value}(\r\n            abi.encodeWithSignature(\"triggerPayment(uint256)\",index)\r\n        );\r\n        require(success, \"The transaction was not successful, canceling.\");\r\n    }\r\n\r\n\t// this is bc if someone sends plain ether without proper data this fallback\r\n\t// will send back the ether to the user\r\n    fallback() external {}\r\n}\r\n",
  "sourcePath": "C:\\Users\\Sahar Mirkamrani\\Desktop\\SupplyChain\\contracts\\Item.sol",
  "compiler": {
    "name": "solc",
    "version": "0.7.0+commit.9e61f92b.Emscripten.clang"
  },
  "schemaVersion": "3.3.4",
  "updatedAt": "2022-05-17T06:43:17.699Z",
  "devdoc": {
    "kind": "dev",
    "methods": {},
    "version": 1
  },
  "userdoc": {
    "kind": "user",
    "methods": {},
    "version": 1
  }
}