{
  "contractName": "Item",
  "abi": [
    {
      "inputs": [
        {
          "internalType": "contract ItemManager",
          "name": "_parentcontract",
          "type": "address"
        },
        {
          "internalType": "uint256",
          "name": "_priceInWei",
          "type": "uint256"
        },
        {
          "internalType": "uint256",
          "name": "_index",
          "type": "uint256"
        }
      ],
      "stateMutability": "nonpayable",
      "type": "constructor"
    },
    {
      "stateMutability": "nonpayable",
      "type": "fallback"
    },
    {
      "inputs": [],
      "name": "index",
      "outputs": [
        {
          "internalType": "uint256",
          "name": "",
          "type": "uint256"
        }
      ],
      "stateMutability": "view",
      "type": "function"
    },
    {
      "inputs": [],
      "name": "priceInWei",
      "outputs": [
        {
          "internalType": "uint256",
          "name": "",
          "type": "uint256"
        }
      ],
      "stateMutability": "view",
      "type": "function"
    },
    {
      "stateMutability": "payable",
      "type": "receive"
    }
  ],
  "bytecode": "0x608060405234801561001057600080fd5b506040516104823803806104828339818101604052606081101561003357600080fd5b81019080805190602001909291908051906020019092919080519060200190929190505050816000819055508060028190555082600360006101000a81548173ffffffffffffffffffffffffffffffffffffffff021916908373ffffffffffffffffffffffffffffffffffffffff1602179055505050506103c9806100b96000396000f3fe60806040526004361061002d5760003560e01c80632986c0e5146103035780633c8da5881461032e576102f4565b366102f4576000600154146100aa576040517f08c379a00000000000000000000000000000000000000000000000000000000081526004018080602001828103825260198152602001807f746865206974656d206973207061696420616c72656164792e0000000000000081525060200191505060405180910390fd5b3460005414610121576040517f08c379a000000000000000000000000000000000000000000000000000000000815260040180806020018281038252601e8152602001807f4f6e6c792066756c6c207061796d656e74732061726520616c6c6f776564000081525060200191505060405180910390fd5b346001600082825401925050819055506000600360009054906101000a900473ffffffffffffffffffffffffffffffffffffffff1673ffffffffffffffffffffffffffffffffffffffff1634600254604051602401808281526020019150506040516020818303038152906040527f800fb83f000000000000000000000000000000000000000000000000000000007bffffffffffffffffffffffffffffffffffffffffffffffffffffffff19166020820180517bffffffffffffffffffffffffffffffffffffffffffffffffffffffff83818316178352505050506040518082805190602001908083835b60208310610230578051825260208201915060208101905060208303925061020d565b6001836020036101000a03801982511681845116808217855250505050505090500191505060006040518083038185875af1925050503d8060008114610292576040519150601f19603f3d011682016040523d82523d6000602084013e610297565b606091505b50509050806102f1576040517f08c379a000000000000000000000000000000000000000000000000000000000815260040180806020018281038252602e815260200180610366602e913960400191505060405180910390fd5b50005b34801561030057600080fd5b50005b34801561030f57600080fd5b50610318610359565b6040518082815260200191505060405180910390f35b34801561033a57600080fd5b5061034361035f565b6040518082815260200191505060405180910390f35b60025481565b6000548156fe546865207472616e73616374696f6e20776173206e6f74207375636365737366756c2c2063616e63656c696e672ea26469706673582212203cc11e1ddeb6ee8bbfaa61af08e847213733d148d021654adb1fe3d620a0a53364736f6c63430007000033",
  "immutableReferences": {},
  "source": "// SPDX-License-Identifier: GPL-3.0\r\n\r\npragma solidity >=0.7.0 <0.9.0;\r\n\r\nimport \"./ItemManager.sol\";\r\n\r\ncontract Item {\r\n    uint256 public priceInWei;\r\n    uint256 pricePaid;\r\n    uint256 public index;\r\n\r\n    ItemManager parentContract;\r\n\r\n    constructor(\r\n        ItemManager _parentcontract,\r\n        uint256 _priceInWei,\r\n        uint256 _index\r\n    ) {\r\n        priceInWei = _priceInWei;\r\n        index = _index;\r\n        parentContract = _parentcontract;\r\n    }\r\n\r\n    receive() external payable {\r\n        require(pricePaid == 0, \"the item is paid already.\");\r\n        require(priceInWei == msg.value, \"Only full payments are allowed\");\r\n        pricePaid += msg.value;\r\n        (bool success, ) = address(parentContract).call{value: msg.value}(\r\n            abi.encodeWithSignature(\"triggerPayment(uint256)\", index)\r\n        );\r\n        require(success, \"The transaction was not successful, canceling.\");\r\n    }\r\n\r\n    fallback() external {}\r\n}\r\n",
  "sourcePath": "C:\\Users\\Sahar Mirkamrani\\Desktop\\SupplyChain\\contracts\\Item.sol",
  "compiler": {
    "name": "solc",
    "version": "0.7.0+commit.9e61f92b.Emscripten.clang"
  },
  "schemaVersion": "3.3.4",
  "updatedAt": "2022-05-11T15:41:42.123Z",
  "devdoc": {
    "kind": "dev",
    "methods": {},
    "version": 1
  },
  "userdoc": {
    "kind": "user",
    "methods": {},
    "version": 1
  }
}